{
  "_format": "hh-sol-artifact-1",
  "contractName": "TournamentPlatform",
  "sourceName": "contracts/TournamentPlatform.sol",
  "abi": [
    {
      "inputs": [],
      "stateMutability": "nonpayable",
      "type": "constructor"
    },
    {
      "inputs": [],
      "name": "CanOnlyCancelDuringRegistration",
      "type": "error"
    },
    {
      "inputs": [],
      "name": "EndTimeMustBeAfterStartTime",
      "type": "error"
    },
    {
      "inputs": [],
      "name": "IncorrectEntryFee",
      "type": "error"
    },
    {
      "inputs": [
        {
          "internalType": "address",
          "name": "owner",
          "type": "address"
        }
      ],
      "name": "OwnableInvalidOwner",
      "type": "error"
    },
    {
      "inputs": [
        {
          "internalType": "address",
          "name": "account",
          "type": "address"
        }
      ],
      "name": "OwnableUnauthorizedAccount",
      "type": "error"
    },
    {
      "inputs": [],
      "name": "PlayerAlreadyJoined",
      "type": "error"
    },
    {
      "inputs": [],
      "name": "PlayerAlreadyRegistered",
      "type": "error"
    },
    {
      "inputs": [],
      "name": "PlayerNotInTournament",
      "type": "error"
    },
    {
      "inputs": [],
      "name": "PlayerNotRegistered",
      "type": "error"
    },
    {
      "inputs": [],
      "name": "ReentrancyGuardReentrantCall",
      "type": "error"
    },
    {
      "inputs": [],
      "name": "StartTimeMustBeInFuture",
      "type": "error"
    },
    {
      "inputs": [],
      "name": "TournamentDoesNotExist",
      "type": "error"
    },
    {
      "inputs": [],
      "name": "TournamentHasAlreadyStarted",
      "type": "error"
    },
    {
      "inputs": [],
      "name": "TournamentIsFull",
      "type": "error"
    },
    {
      "inputs": [],
      "name": "TournamentMustAllowAtLeastTwoPlayers",
      "type": "error"
    },
    {
      "inputs": [],
      "name": "TournamentNotEndedYet",
      "type": "error"
    },
    {
      "inputs": [],
      "name": "TournamentNotInProgress",
      "type": "error"
    },
    {
      "inputs": [],
      "name": "TournamentNotInRegistrationPhase",
      "type": "error"
    },
    {
      "inputs": [],
      "name": "TournamentScoreSubmissionEnded",
      "type": "error"
    },
    {
      "anonymous": false,
      "inputs": [
        {
          "indexed": true,
          "internalType": "address",
          "name": "previousOwner",
          "type": "address"
        },
        {
          "indexed": true,
          "internalType": "address",
          "name": "newOwner",
          "type": "address"
        }
      ],
      "name": "OwnershipTransferred",
      "type": "event"
    },
    {
      "anonymous": false,
      "inputs": [
        {
          "indexed": false,
          "internalType": "uint256",
          "name": "tournamentId",
          "type": "uint256"
        },
        {
          "indexed": false,
          "internalType": "address",
          "name": "player",
          "type": "address"
        }
      ],
      "name": "PlayerJoinedTournament",
      "type": "event"
    },
    {
      "anonymous": false,
      "inputs": [
        {
          "indexed": false,
          "internalType": "uint256",
          "name": "playerId",
          "type": "uint256"
        },
        {
          "indexed": false,
          "internalType": "address",
          "name": "playerAddress",
          "type": "address"
        }
      ],
      "name": "PlayerRegistered",
      "type": "event"
    },
    {
      "anonymous": false,
      "inputs": [
        {
          "indexed": false,
          "internalType": "uint256",
          "name": "tournamentId",
          "type": "uint256"
        },
        {
          "indexed": false,
          "internalType": "address[]",
          "name": "winners",
          "type": "address[]"
        }
      ],
      "name": "RewardsDistributed",
      "type": "event"
    },
    {
      "anonymous": false,
      "inputs": [
        {
          "indexed": false,
          "internalType": "uint256",
          "name": "tournamentId",
          "type": "uint256"
        },
        {
          "indexed": false,
          "internalType": "address",
          "name": "player",
          "type": "address"
        },
        {
          "indexed": false,
          "internalType": "uint256",
          "name": "score",
          "type": "uint256"
        }
      ],
      "name": "ScoreSubmitted",
      "type": "event"
    },
    {
      "anonymous": false,
      "inputs": [
        {
          "indexed": false,
          "internalType": "uint256",
          "name": "tournamentId",
          "type": "uint256"
        }
      ],
      "name": "TournamentCanceled",
      "type": "event"
    },
    {
      "anonymous": false,
      "inputs": [
        {
          "indexed": false,
          "internalType": "uint256",
          "name": "tournamentId",
          "type": "uint256"
        },
        {
          "indexed": false,
          "internalType": "string",
          "name": "name",
          "type": "string"
        },
        {
          "indexed": false,
          "internalType": "uint256",
          "name": "entryFee",
          "type": "uint256"
        },
        {
          "indexed": false,
          "internalType": "uint256",
          "name": "maxPlayers",
          "type": "uint256"
        },
        {
          "indexed": false,
          "internalType": "uint256",
          "name": "startTime",
          "type": "uint256"
        }
      ],
      "name": "TournamentCreated",
      "type": "event"
    },
    {
      "anonymous": false,
      "inputs": [
        {
          "indexed": false,
          "internalType": "uint256",
          "name": "tournamentId",
          "type": "uint256"
        }
      ],
      "name": "TournamentStarted",
      "type": "event"
    },
    {
      "inputs": [
        {
          "internalType": "uint256",
          "name": "_tournamentId",
          "type": "uint256"
        }
      ],
      "name": "cancelTournament",
      "outputs": [],
      "stateMutability": "nonpayable",
      "type": "function"
    },
    {
      "inputs": [
        {
          "internalType": "string",
          "name": "_name",
          "type": "string"
        },
        {
          "internalType": "uint256",
          "name": "_entryFee",
          "type": "uint256"
        },
        {
          "internalType": "uint256",
          "name": "_maxPlayers",
          "type": "uint256"
        },
        {
          "internalType": "uint256",
          "name": "_startTime",
          "type": "uint256"
        },
        {
          "internalType": "uint256",
          "name": "_endTime",
          "type": "uint256"
        },
        {
          "internalType": "string",
          "name": "_gameType",
          "type": "string"
        }
      ],
      "name": "createTournament",
      "outputs": [],
      "stateMutability": "nonpayable",
      "type": "function"
    },
    {
      "inputs": [
        {
          "internalType": "uint256",
          "name": "_tournamentId",
          "type": "uint256"
        }
      ],
      "name": "finalizeTournament",
      "outputs": [],
      "stateMutability": "nonpayable",
      "type": "function"
    },
    {
      "inputs": [],
      "name": "getAllTournaments",
      "outputs": [
        {
          "components": [
            {
              "internalType": "uint256",
              "name": "id",
              "type": "uint256"
            },
            {
              "internalType": "string",
              "name": "name",
              "type": "string"
            },
            {
              "internalType": "uint256",
              "name": "entryFee",
              "type": "uint256"
            },
            {
              "internalType": "uint256",
              "name": "maxPlayers",
              "type": "uint256"
            },
            {
              "internalType": "uint256",
              "name": "startTime",
              "type": "uint256"
            },
            {
              "internalType": "uint256",
              "name": "endTime",
              "type": "uint256"
            },
            {
              "internalType": "string",
              "name": "gameType",
              "type": "string"
            },
            {
              "internalType": "enum TournamentPlatform.TournamentStatus",
              "name": "status",
              "type": "uint8"
            },
            {
              "internalType": "uint256",
              "name": "totalPrizePool",
              "type": "uint256"
            },
            {
              "internalType": "uint256",
              "name": "currentPlayers",
              "type": "uint256"
            },
            {
              "internalType": "address[]",
              "name": "players",
              "type": "address[]"
            }
          ],
          "internalType": "struct TournamentPlatform.TournamentView[]",
          "name": "",
          "type": "tuple[]"
        }
      ],
      "stateMutability": "view",
      "type": "function"
    },
    {
      "inputs": [
        {
          "internalType": "address",
          "name": "_player",
          "type": "address"
        }
      ],
      "name": "getPlayerDetails",
      "outputs": [
        {
          "components": [
            {
              "internalType": "uint256",
              "name": "id",
              "type": "uint256"
            },
            {
              "internalType": "bool",
              "name": "exists",
              "type": "bool"
            }
          ],
          "internalType": "struct TournamentPlatform.Player",
          "name": "",
          "type": "tuple"
        }
      ],
      "stateMutability": "view",
      "type": "function"
    },
    {
      "inputs": [
        {
          "internalType": "uint256",
          "name": "_tournamentId",
          "type": "uint256"
        },
        {
          "internalType": "address",
          "name": "_player",
          "type": "address"
        }
      ],
      "name": "getPlayerScore",
      "outputs": [
        {
          "internalType": "uint256",
          "name": "",
          "type": "uint256"
        }
      ],
      "stateMutability": "view",
      "type": "function"
    },
    {
      "inputs": [
        {
          "internalType": "uint256",
          "name": "_tournamentId",
          "type": "uint256"
        }
      ],
      "name": "getTournamentDetails",
      "outputs": [
        {
          "components": [
            {
              "internalType": "uint256",
              "name": "id",
              "type": "uint256"
            },
            {
              "internalType": "string",
              "name": "name",
              "type": "string"
            },
            {
              "internalType": "uint256",
              "name": "entryFee",
              "type": "uint256"
            },
            {
              "internalType": "uint256",
              "name": "maxPlayers",
              "type": "uint256"
            },
            {
              "internalType": "uint256",
              "name": "startTime",
              "type": "uint256"
            },
            {
              "internalType": "uint256",
              "name": "endTime",
              "type": "uint256"
            },
            {
              "internalType": "string",
              "name": "gameType",
              "type": "string"
            },
            {
              "internalType": "enum TournamentPlatform.TournamentStatus",
              "name": "status",
              "type": "uint8"
            },
            {
              "internalType": "uint256",
              "name": "totalPrizePool",
              "type": "uint256"
            },
            {
              "internalType": "uint256",
              "name": "currentPlayers",
              "type": "uint256"
            },
            {
              "internalType": "address[]",
              "name": "players",
              "type": "address[]"
            }
          ],
          "internalType": "struct TournamentPlatform.TournamentView",
          "name": "",
          "type": "tuple"
        }
      ],
      "stateMutability": "view",
      "type": "function"
    },
    {
      "inputs": [
        {
          "internalType": "uint256",
          "name": "_tournamentId",
          "type": "uint256"
        }
      ],
      "name": "getTournamentPlayers",
      "outputs": [
        {
          "internalType": "address[]",
          "name": "",
          "type": "address[]"
        }
      ],
      "stateMutability": "view",
      "type": "function"
    },
    {
      "inputs": [
        {
          "internalType": "uint256",
          "name": "_tournamentId",
          "type": "uint256"
        }
      ],
      "name": "getTournamentStatus",
      "outputs": [
        {
          "internalType": "enum TournamentPlatform.TournamentStatus",
          "name": "",
          "type": "uint8"
        }
      ],
      "stateMutability": "view",
      "type": "function"
    },
    {
      "inputs": [
        {
          "internalType": "uint256",
          "name": "_tournamentId",
          "type": "uint256"
        }
      ],
      "name": "getTournamentWinners",
      "outputs": [
        {
          "internalType": "address[]",
          "name": "",
          "type": "address[]"
        }
      ],
      "stateMutability": "view",
      "type": "function"
    },
    {
      "inputs": [
        {
          "internalType": "uint256",
          "name": "_tournamentId",
          "type": "uint256"
        }
      ],
      "name": "joinTournament",
      "outputs": [],
      "stateMutability": "payable",
      "type": "function"
    },
    {
      "inputs": [],
      "name": "owner",
      "outputs": [
        {
          "internalType": "address",
          "name": "",
          "type": "address"
        }
      ],
      "stateMutability": "view",
      "type": "function"
    },
    {
      "inputs": [
        {
          "internalType": "address",
          "name": "",
          "type": "address"
        }
      ],
      "name": "players",
      "outputs": [
        {
          "internalType": "uint256",
          "name": "id",
          "type": "uint256"
        },
        {
          "internalType": "bool",
          "name": "exists",
          "type": "bool"
        }
      ],
      "stateMutability": "view",
      "type": "function"
    },
    {
      "inputs": [],
      "name": "playersCount",
      "outputs": [
        {
          "internalType": "uint256",
          "name": "",
          "type": "uint256"
        }
      ],
      "stateMutability": "view",
      "type": "function"
    },
    {
      "inputs": [],
      "name": "registerPlayer",
      "outputs": [],
      "stateMutability": "nonpayable",
      "type": "function"
    },
    {
      "inputs": [],
      "name": "renounceOwnership",
      "outputs": [],
      "stateMutability": "nonpayable",
      "type": "function"
    },
    {
      "inputs": [
        {
          "internalType": "uint256",
          "name": "_tournamentId",
          "type": "uint256"
        }
      ],
      "name": "startTournament",
      "outputs": [],
      "stateMutability": "nonpayable",
      "type": "function"
    },
    {
      "inputs": [
        {
          "internalType": "uint256",
          "name": "_tournamentId",
          "type": "uint256"
        },
        {
          "internalType": "address",
          "name": "_player",
          "type": "address"
        },
        {
          "internalType": "uint256",
          "name": "_score",
          "type": "uint256"
        }
      ],
      "name": "submitScore",
      "outputs": [],
      "stateMutability": "nonpayable",
      "type": "function"
    },
    {
      "inputs": [
        {
          "internalType": "uint256",
          "name": "",
          "type": "uint256"
        }
      ],
      "name": "tournaments",
      "outputs": [
        {
          "internalType": "uint256",
          "name": "id",
          "type": "uint256"
        },
        {
          "internalType": "string",
          "name": "name",
          "type": "string"
        },
        {
          "internalType": "uint256",
          "name": "entryFee",
          "type": "uint256"
        },
        {
          "internalType": "uint256",
          "name": "maxPlayers",
          "type": "uint256"
        },
        {
          "internalType": "uint256",
          "name": "startTime",
          "type": "uint256"
        },
        {
          "internalType": "uint256",
          "name": "endTime",
          "type": "uint256"
        },
        {
          "internalType": "string",
          "name": "gameType",
          "type": "string"
        },
        {
          "internalType": "enum TournamentPlatform.TournamentStatus",
          "name": "status",
          "type": "uint8"
        },
        {
          "internalType": "uint256",
          "name": "totalPrizePool",
          "type": "uint256"
        }
      ],
      "stateMutability": "view",
      "type": "function"
    },
    {
      "inputs": [],
      "name": "tournamentsCount",
      "outputs": [
        {
          "internalType": "uint256",
          "name": "",
          "type": "uint256"
        }
      ],
      "stateMutability": "view",
      "type": "function"
    },
    {
      "inputs": [
        {
          "internalType": "address",
          "name": "newOwner",
          "type": "address"
        }
      ],
      "name": "transferOwnership",
      "outputs": [],
      "stateMutability": "nonpayable",
      "type": "function"
    }
  ],
  "bytecode": "0x608060405234801561001057600080fd5b5033600073ffffffffffffffffffffffffffffffffffffffff168173ffffffffffffffffffffffffffffffffffffffff16036100845760006040517f1e4fbdf700000000000000000000000000000000000000000000000000000000815260040161007b91906101a5565b60405180910390fd5b610093816100a060201b60201c565b50600180819055506101c0565b60008060009054906101000a900473ffffffffffffffffffffffffffffffffffffffff169050816000806101000a81548173ffffffffffffffffffffffffffffffffffffffff021916908373ffffffffffffffffffffffffffffffffffffffff1602179055508173ffffffffffffffffffffffffffffffffffffffff168173ffffffffffffffffffffffffffffffffffffffff167f8be0079c531659141344cd1fd0a4f28419497f9722a3daafe3b4186f6b6457e060405160405180910390a35050565b600073ffffffffffffffffffffffffffffffffffffffff82169050919050565b600061018f82610164565b9050919050565b61019f81610184565b82525050565b60006020820190506101ba6000830184610196565b92915050565b613810806101cf6000396000f3fe60806040526004361061012a5760003560e01c8063a3f67d6d116100ab578063d115cac61161006f578063d115cac6146103f6578063d193b25314610412578063e2eb41ff1461043d578063e96d5c0f1461047b578063ecccc6da146104b8578063f2fde38b146104e35761012a565b8063a3f67d6d146102eb578063a44ef7f314610316578063ad0748d214610353578063c617b26a1461037c578063c8dd6ce7146103b95761012a565b80635c07a4b0116100f25780635c07a4b014610224578063651ea9431461023b578063715018a6146102645780637503e1b71461027b5780638da5cb5b146102c05761012a565b80631ba619a41461012f578063216655e21461015857806326f7519a1461019557806329d8e857146101d257806332432233146101fb575b600080fd5b34801561013b57600080fd5b5061015660048036038101906101519190612850565b61050c565b005b34801561016457600080fd5b5061017f600480360381019061017a9190612850565b6109a6565b60405161018c9190612b80565b60405180910390f35b3480156101a157600080fd5b506101bc60048036038101906101b79190612850565b610bfb565b6040516101c99190612c11565b60405180910390f35b3480156101de57600080fd5b506101f960048036038101906101f49190612c5f565b610c9f565b005b34801561020757600080fd5b50610222600480360381019061021d9190612850565b610eb5565b005b34801561023057600080fd5b5061023961109e565b005b34801561024757600080fd5b50610262600480360381019061025d9190612850565b6111fa565b005b34801561027057600080fd5b50610279611315565b005b34801561028757600080fd5b506102a2600480360381019061029d9190612850565b611329565b6040516102b799989796959493929190612d1a565b60405180910390f35b3480156102cc57600080fd5b506102d5611494565b6040516102e29190612dc4565b60405180910390f35b3480156102f757600080fd5b506103006114bd565b60405161030d9190612ddf565b60405180910390f35b34801561032257600080fd5b5061033d60048036038101906103389190612850565b6114c3565b60405161034a9190612c11565b60405180910390f35b34801561035f57600080fd5b5061037a60048036038101906103759190612e5f565b611567565b005b34801561038857600080fd5b506103a3600480360381019061039e9190612f2e565b611718565b6040516103b09190612ddf565b60405180910390f35b3480156103c557600080fd5b506103e060048036038101906103db9190612f6e565b611776565b6040516103ed9190612fe5565b60405180910390f35b610410600480360381019061040b9190612850565b6117f4565b005b34801561041e57600080fd5b50610427611c67565b6040516104349190612ddf565b60405180910390f35b34801561044957600080fd5b50610464600480360381019061045f9190612f6e565b611c6d565b60405161047292919061300f565b60405180910390f35b34801561048757600080fd5b506104a2600480360381019061049d9190612850565b611c9e565b6040516104af9190613038565b60405180910390f35b3480156104c457600080fd5b506104cd611ccb565b6040516104da9190613212565b60405180910390f35b3480156104ef57600080fd5b5061050a60048036038101906105059190612f6e565b611fb7565b005b61051461203d565b60006005600083815260200190815260200160002090506000816000015403610569576040517f7a30a6cf00000000000000000000000000000000000000000000000000000000815260040160405180910390fd5b6001600381111561057d5761057c61291c565b5b8160070160009054906101000a900460ff1660038111156105a1576105a061291c565b5b146105d8576040517f8ec8598b00000000000000000000000000000000000000000000000000000000815260040160405180910390fd5b80600501544211610615576040517fa18c6b7d00000000000000000000000000000000000000000000000000000000815260040160405180910390fd5b60006106228360036120c4565b90508082600c01908051906020019061063c9291906126e1565b50600081519050600081111561093a57600083600801549050600182036106c4578260008151811061067157610670613234565b5b602002602001015173ffffffffffffffffffffffffffffffffffffffff166108fc829081150290604051600060405180830381858888f193505050501580156106be573d6000803e3d6000fd5b50610938565b600282036107be57600060646046836106dd9190613292565b6106e79190613303565b9050836000815181106106fd576106fc613234565b5b602002602001015173ffffffffffffffffffffffffffffffffffffffff166108fc829081150290604051600060405180830381858888f1935050505015801561074a573d6000803e3d6000fd5b508360018151811061075f5761075e613234565b5b602002602001015173ffffffffffffffffffffffffffffffffffffffff166108fc828461078c9190613334565b9081150290604051600060405180830381858888f193505050501580156107b7573d6000803e3d6000fd5b5050610937565b600060646032836107cf9190613292565b6107d99190613303565b905060006064601e846107ec9190613292565b6107f69190613303565b90508460008151811061080c5761080b613234565b5b602002602001015173ffffffffffffffffffffffffffffffffffffffff166108fc839081150290604051600060405180830381858888f19350505050158015610859573d6000803e3d6000fd5b508460018151811061086e5761086d613234565b5b602002602001015173ffffffffffffffffffffffffffffffffffffffff166108fc829081150290604051600060405180830381858888f193505050501580156108bb573d6000803e3d6000fd5b50846002815181106108d0576108cf613234565b5b602002602001015173ffffffffffffffffffffffffffffffffffffffff166108fc8284866108fe9190613334565b6109089190613334565b9081150290604051600060405180830381858888f19350505050158015610933573d6000803e3d6000fd5b5050505b5b505b60028360070160006101000a81548160ff021916908360038111156109625761096161291c565b5b02179055507f5c1293c3ed5c49a259a37710eca708a82912253d792ee05ae563355cf60875028483604051610998929190613368565b60405180910390a150505050565b6109ae61276b565b6000600560008481526020019081526020016000209050604051806101600160405280826000015481526020018260010180546109ea906133c7565b80601f0160208091040260200160405190810160405280929190818152602001828054610a16906133c7565b8015610a635780601f10610a3857610100808354040283529160200191610a63565b820191906000526020600020905b815481529060010190602001808311610a4657829003601f168201915b5050505050815260200182600201548152602001826003015481526020018260040154815260200182600501548152602001826006018054610aa4906133c7565b80601f0160208091040260200160405190810160405280929190818152602001828054610ad0906133c7565b8015610b1d5780601f10610af257610100808354040283529160200191610b1d565b820191906000526020600020905b815481529060010190602001808311610b0057829003601f168201915b505050505081526020018260070160009054906101000a900460ff166003811115610b4b57610b4a61291c565b5b8152602001826008015481526020018260090180549050815260200182600901805480602002602001604051908101604052809291908181526020018280548015610beb57602002820191906000526020600020905b8160009054906101000a900473ffffffffffffffffffffffffffffffffffffffff1673ffffffffffffffffffffffffffffffffffffffff1681526020019060010190808311610ba1575b5050505050815250915050919050565b606060056000838152602001908152602001600020600901805480602002602001604051908101604052809291908181526020018280548015610c9357602002820191906000526020600020905b8160009054906101000a900473ffffffffffffffffffffffffffffffffffffffff1673ffffffffffffffffffffffffffffffffffffffff1681526020019060010190808311610c49575b50505050509050919050565b610ca761203d565b60006005600085815260200190815260200160002090506000816000015403610cfc576040517f7a30a6cf00000000000000000000000000000000000000000000000000000000815260040160405180910390fd5b60016003811115610d1057610d0f61291c565b5b8160070160009054906101000a900460ff166003811115610d3457610d3361291c565b5b14610d6b576040517f8ec8598b00000000000000000000000000000000000000000000000000000000815260040160405180910390fd5b80600a0160008473ffffffffffffffffffffffffffffffffffffffff1673ffffffffffffffffffffffffffffffffffffffff16815260200190815260200160002060009054906101000a900460ff16610df0576040517fc43ffeed00000000000000000000000000000000000000000000000000000000815260040160405180910390fd5b8060050154421115610e2e576040517f671693e700000000000000000000000000000000000000000000000000000000815260040160405180910390fd5b8181600b0160008573ffffffffffffffffffffffffffffffffffffffff1673ffffffffffffffffffffffffffffffffffffffff168152602001908152602001600020819055507ffdeaad9f62c24dd107d87ba2c0b144114dec62d178cad522394390f1d233a62c848484604051610ea7939291906133f8565b60405180910390a150505050565b610ebd61203d565b60006005600083815260200190815260200160002090506000816000015403610f12576040517f7a30a6cf00000000000000000000000000000000000000000000000000000000815260040160405180910390fd5b60006003811115610f2657610f2561291c565b5b8160070160009054906101000a900460ff166003811115610f4a57610f4961291c565b5b14610f81576040517fd083216a00000000000000000000000000000000000000000000000000000000815260040160405180910390fd5b60038160070160006101000a81548160ff02191690836003811115610fa957610fa861291c565b5b021790555060008160090180549050905060005b81811015611061576000836009018281548110610fdd57610fdc613234565b5b9060005260206000200160009054906101000a900473ffffffffffffffffffffffffffffffffffffffff1690508073ffffffffffffffffffffffffffffffffffffffff166108fc85600201549081150290604051600060405180830381858888f19350505050158015611054573d6000803e3d6000fd5b5081600101915050610fbd565b507f78018a481bc24828af057b1b54232be607be61d8fc4d3949a8a390bbc4899935836040516110919190612ddf565b60405180910390a1505050565b600460003373ffffffffffffffffffffffffffffffffffffffff1673ffffffffffffffffffffffffffffffffffffffff16815260200190815260200160002060010160009054906101000a900460ff1615611125576040517fab5ac72b00000000000000000000000000000000000000000000000000000000815260040160405180910390fd5b6002600081548092919060010191905055506040518060400160405280600254815260200160011515815250600460003373ffffffffffffffffffffffffffffffffffffffff1673ffffffffffffffffffffffffffffffffffffffff1681526020019081526020016000206000820151816000015560208201518160010160006101000a81548160ff0219169083151502179055509050507fc18c35a89038d83bd7af8c744ff689d68f772adf84d7774f8e415f151246694e600254336040516111f092919061342f565b60405180910390a1565b61120261203d565b60006005600083815260200190815260200160002090506000816000015403611257576040517f7a30a6cf00000000000000000000000000000000000000000000000000000000815260040160405180910390fd5b6000600381111561126b5761126a61291c565b5b8160070160009054906101000a900460ff16600381111561128f5761128e61291c565b5b146112c6576040517f0cedcc1800000000000000000000000000000000000000000000000000000000815260040160405180910390fd5b600281600901805490501015611308576040517fab1159e400000000000000000000000000000000000000000000000000000000815260040160405180910390fd5b61131182612547565b5050565b61131d61203d565b61132760006125c6565b565b6005602052806000526040600020600091509050806000015490806001018054611352906133c7565b80601f016020809104026020016040519081016040528092919081815260200182805461137e906133c7565b80156113cb5780601f106113a0576101008083540402835291602001916113cb565b820191906000526020600020905b8154815290600101906020018083116113ae57829003601f168201915b5050505050908060020154908060030154908060040154908060050154908060060180546113f8906133c7565b80601f0160208091040260200160405190810160405280929190818152602001828054611424906133c7565b80156114715780601f1061144657610100808354040283529160200191611471565b820191906000526020600020905b81548152906001019060200180831161145457829003601f168201915b5050505050908060070160009054906101000a900460ff16908060080154905089565b60008060009054906101000a900473ffffffffffffffffffffffffffffffffffffffff16905090565b60025481565b606060056000838152602001908152602001600020600c0180548060200260200160405190810160405280929190818152602001828054801561155b57602002820191906000526020600020905b8160009054906101000a900473ffffffffffffffffffffffffffffffffffffffff1673ffffffffffffffffffffffffffffffffffffffff1681526020019060010190808311611511575b50505050509050919050565b61156f61203d565b4284116115a8576040517f9519947b00000000000000000000000000000000000000000000000000000000815260040160405180910390fd5b8383116115e1576040517f49ffb45200000000000000000000000000000000000000000000000000000000815260040160405180910390fd5b6001851161161b576040517fab1159e400000000000000000000000000000000000000000000000000000000815260040160405180910390fd5b600360008154809291906001019190505550600060056000600354815260200190815260200160002090506003548160000181905550888882600101918261166492919061363e565b50868160020181905550858160030181905550848160040181905550838160050181905550828282600601918261169c92919061363e565b5060008160070160006101000a81548160ff021916908360038111156116c5576116c461291c565b5b02179055507f4bf8cfb40e29450977de33a6c27c391435a522d5460587b63fbc18ae133c215c6003548a8a8a8a8a6040516117059695949392919061374a565b60405180910390a1505050505050505050565b600060056000848152602001908152602001600020600b0160008373ffffffffffffffffffffffffffffffffffffffff1673ffffffffffffffffffffffffffffffffffffffff16815260200190815260200160002054905092915050565b61177e6127d7565b600460008373ffffffffffffffffffffffffffffffffffffffff1673ffffffffffffffffffffffffffffffffffffffff168152602001908152602001600020604051806040016040529081600082015481526020016001820160009054906101000a900460ff1615151515815250509050919050565b6117fc61268a565b60006005600083815260200190815260200160002090506000816000015403611851576040517f7a30a6cf00000000000000000000000000000000000000000000000000000000815260040160405180910390fd5b600060038111156118655761186461291c565b5b8160070160009054906101000a900460ff1660038111156118895761188861291c565b5b146118c0576040517f0cedcc1800000000000000000000000000000000000000000000000000000000815260040160405180910390fd5b80600a0160003373ffffffffffffffffffffffffffffffffffffffff1673ffffffffffffffffffffffffffffffffffffffff16815260200190815260200160002060009054906101000a900460ff1615611946576040517fa627f53800000000000000000000000000000000000000000000000000000000815260040160405180910390fd5b806003015481600901805490501061198a576040517f7ce4c96700000000000000000000000000000000000000000000000000000000815260040160405180910390fd5b428160040154116119c7576040517f646a5d5200000000000000000000000000000000000000000000000000000000815260040160405180910390fd5b80600201543414611a04576040517f440523d000000000000000000000000000000000000000000000000000000000815260040160405180910390fd5b600460003373ffffffffffffffffffffffffffffffffffffffff1673ffffffffffffffffffffffffffffffffffffffff16815260200190815260200160002060010160009054906101000a900460ff16611b2c576002600081548092919060010191905055506040518060400160405280600254815260200160011515815250600460003373ffffffffffffffffffffffffffffffffffffffff1673ffffffffffffffffffffffffffffffffffffffff1681526020019081526020016000206000820151816000015560208201518160010160006101000a81548160ff0219169083151502179055509050507fc18c35a89038d83bd7af8c744ff689d68f772adf84d7774f8e415f151246694e60025433604051611b2392919061342f565b60405180910390a15b80600901339080600181540180825580915050600190039060005260206000200160009091909190916101000a81548173ffffffffffffffffffffffffffffffffffffffff021916908373ffffffffffffffffffffffffffffffffffffffff160217905550600181600a0160003373ffffffffffffffffffffffffffffffffffffffff1673ffffffffffffffffffffffffffffffffffffffff16815260200190815260200160002060006101000a81548160ff02191690831515021790555034816008016000828254611bff91906137a6565b925050819055507f0199b628384015f5e808bfa79c62d63151f08a490388559b65097246c98729478233604051611c3792919061342f565b60405180910390a18060030154816009018054905003611c5b57611c5a82612547565b5b50611c646126d0565b50565b60035481565b60046020528060005260406000206000915090508060000154908060010160009054906101000a900460ff16905082565b60006005600083815260200190815260200160002060070160009054906101000a900460ff169050919050565b6060600060035467ffffffffffffffff811115611ceb57611cea613463565b5b604051908082528060200260200182016040528015611d2457816020015b611d1161276b565b815260200190600190039081611d095790505b50905060005b600354811015611faf57600060056000600184611d4791906137a6565b8152602001908152602001600020905060405180610160016040528082600001548152602001826001018054611d7c906133c7565b80601f0160208091040260200160405190810160405280929190818152602001828054611da8906133c7565b8015611df55780601f10611dca57610100808354040283529160200191611df5565b820191906000526020600020905b815481529060010190602001808311611dd857829003601f168201915b5050505050815260200182600201548152602001826003015481526020018260040154815260200182600501548152602001826006018054611e36906133c7565b80601f0160208091040260200160405190810160405280929190818152602001828054611e62906133c7565b8015611eaf5780601f10611e8457610100808354040283529160200191611eaf565b820191906000526020600020905b815481529060010190602001808311611e9257829003601f168201915b505050505081526020018260070160009054906101000a900460ff166003811115611edd57611edc61291c565b5b8152602001826008015481526020018260090180549050815260200182600901805480602002602001604051908101604052809291908181526020018280548015611f7d57602002820191906000526020600020905b8160009054906101000a900473ffffffffffffffffffffffffffffffffffffffff1673ffffffffffffffffffffffffffffffffffffffff1681526020019060010190808311611f33575b5050505050815250838381518110611f9857611f97613234565b5b602002602001018190525081600101915050611d2a565b508091505090565b611fbf61203d565b600073ffffffffffffffffffffffffffffffffffffffff168173ffffffffffffffffffffffffffffffffffffffff16036120315760006040517f1e4fbdf70000000000000000000000000000000000000000000000000000000081526004016120289190612dc4565b60405180910390fd5b61203a816125c6565b50565b6120456126d9565b73ffffffffffffffffffffffffffffffffffffffff16612063611494565b73ffffffffffffffffffffffffffffffffffffffff16146120c2576120866126d9565b6040517f118cdaa70000000000000000000000000000000000000000000000000000000081526004016120b99190612dc4565b60405180910390fd5b565b6060600060056000858152602001908152602001600020905060008160090180549050905060008482106120f857846120fa565b815b905060008267ffffffffffffffff81111561211857612117613463565b5b6040519080825280602002602001820160405280156121465781602001602082028036833780820191505090505b50905060008367ffffffffffffffff81111561216557612164613463565b5b6040519080825280602002602001820160405280156121935781602001602082028036833780820191505090505b50905060005b848110156122a15760008660090182815481106121b9576121b8613234565b5b9060005260206000200160009054906101000a900473ffffffffffffffffffffffffffffffffffffffff169050808483815181106121fa576121f9613234565b5b602002602001019073ffffffffffffffffffffffffffffffffffffffff16908173ffffffffffffffffffffffffffffffffffffffff168152505086600b0160008273ffffffffffffffffffffffffffffffffffffffff1673ffffffffffffffffffffffffffffffffffffffff1681526020019081526020016000205483838151811061228957612288613234565b5b60200260200101818152505081600101915050612199565b5060005b8481101561246b5760006001826122bc91906137a6565b90505b8581101561245f578281815181106122da576122d9613234565b5b60200260200101518383815181106122f5576122f4613234565b5b6020026020010151101561245457600083838151811061231857612317613234565b5b6020026020010151905083828151811061233557612334613234565b5b60200260200101518484815181106123505761234f613234565b5b602002602001018181525050808483815181106123705761236f613234565b5b602002602001018181525050600085848151811061239157612390613234565b5b602002602001015190508583815181106123ae576123ad613234565b5b60200260200101518685815181106123c9576123c8613234565b5b602002602001019073ffffffffffffffffffffffffffffffffffffffff16908173ffffffffffffffffffffffffffffffffffffffff16815250508086848151811061241757612416613234565b5b602002602001019073ffffffffffffffffffffffffffffffffffffffff16908173ffffffffffffffffffffffffffffffffffffffff168152505050505b8060010190506122bf565b508060010190506122a5565b5060008367ffffffffffffffff81111561248857612487613463565b5b6040519080825280602002602001820160405280156124b65781602001602082028036833780820191505090505b50905060005b84811015612537578381815181106124d7576124d6613234565b5b60200260200101518282815181106124f2576124f1613234565b5b602002602001019073ffffffffffffffffffffffffffffffffffffffff16908173ffffffffffffffffffffffffffffffffffffffff16815250508060010190506124bc565b5080965050505050505092915050565b600060056000838152602001908152602001600020905060018160070160006101000a81548160ff021916908360038111156125865761258561291c565b5b02179055507f6092323421a4a860e7644d69619f90504d467bc4d0ef357c6c17e786217500c5826040516125ba9190612ddf565b60405180910390a15050565b60008060009054906101000a900473ffffffffffffffffffffffffffffffffffffffff169050816000806101000a81548173ffffffffffffffffffffffffffffffffffffffff021916908373ffffffffffffffffffffffffffffffffffffffff1602179055508173ffffffffffffffffffffffffffffffffffffffff168173ffffffffffffffffffffffffffffffffffffffff167f8be0079c531659141344cd1fd0a4f28419497f9722a3daafe3b4186f6b6457e060405160405180910390a35050565b6002600154036126c6576040517f3ee5aeb500000000000000000000000000000000000000000000000000000000815260040160405180910390fd5b6002600181905550565b60018081905550565b600033905090565b82805482825590600052602060002090810192821561275a579160200282015b828111156127595782518260006101000a81548173ffffffffffffffffffffffffffffffffffffffff021916908373ffffffffffffffffffffffffffffffffffffffff16021790555091602001919060010190612701565b5b50905061276791906127f3565b5090565b60405180610160016040528060008152602001606081526020016000815260200160008152602001600081526020016000815260200160608152602001600060038111156127bc576127bb61291c565b5b81526020016000815260200160008152602001606081525090565b6040518060400160405280600081526020016000151581525090565b5b8082111561280c5760008160009055506001016127f4565b5090565b600080fd5b600080fd5b6000819050919050565b61282d8161281a565b811461283857600080fd5b50565b60008135905061284a81612824565b92915050565b60006020828403121561286657612865612810565b5b60006128748482850161283b565b91505092915050565b6128868161281a565b82525050565b600081519050919050565b600082825260208201905092915050565b60005b838110156128c65780820151818401526020810190506128ab565b60008484015250505050565b6000601f19601f8301169050919050565b60006128ee8261288c565b6128f88185612897565b93506129088185602086016128a8565b612911816128d2565b840191505092915050565b7f4e487b7100000000000000000000000000000000000000000000000000000000600052602160045260246000fd5b6004811061295c5761295b61291c565b5b50565b600081905061296d8261294b565b919050565b600061297d8261295f565b9050919050565b61298d81612972565b82525050565b600081519050919050565b600082825260208201905092915050565b6000819050602082019050919050565b600073ffffffffffffffffffffffffffffffffffffffff82169050919050565b60006129ea826129bf565b9050919050565b6129fa816129df565b82525050565b6000612a0c83836129f1565b60208301905092915050565b6000602082019050919050565b6000612a3082612993565b612a3a818561299e565b9350612a45836129af565b8060005b83811015612a76578151612a5d8882612a00565b9750612a6883612a18565b925050600181019050612a49565b5085935050505092915050565b600061016083016000830151612a9c600086018261287d565b5060208301518482036020860152612ab482826128e3565b9150506040830151612ac9604086018261287d565b506060830151612adc606086018261287d565b506080830151612aef608086018261287d565b5060a0830151612b0260a086018261287d565b5060c083015184820360c0860152612b1a82826128e3565b91505060e0830151612b2f60e0860182612984565b50610100830151612b4461010086018261287d565b50610120830151612b5961012086018261287d565b50610140830151848203610140860152612b738282612a25565b9150508091505092915050565b60006020820190508181036000830152612b9a8184612a83565b905092915050565b600082825260208201905092915050565b6000612bbe82612993565b612bc88185612ba2565b9350612bd3836129af565b8060005b83811015612c04578151612beb8882612a00565b9750612bf683612a18565b925050600181019050612bd7565b5085935050505092915050565b60006020820190508181036000830152612c2b8184612bb3565b905092915050565b612c3c816129df565b8114612c4757600080fd5b50565b600081359050612c5981612c33565b92915050565b600080600060608486031215612c7857612c77612810565b5b6000612c868682870161283b565b9350506020612c9786828701612c4a565b9250506040612ca88682870161283b565b9150509250925092565b612cbb8161281a565b82525050565b600082825260208201905092915050565b6000612cdd8261288c565b612ce78185612cc1565b9350612cf78185602086016128a8565b612d00816128d2565b840191505092915050565b612d1481612972565b82525050565b600061012082019050612d30600083018c612cb2565b8181036020830152612d42818b612cd2565b9050612d51604083018a612cb2565b612d5e6060830189612cb2565b612d6b6080830188612cb2565b612d7860a0830187612cb2565b81810360c0830152612d8a8186612cd2565b9050612d9960e0830185612d0b565b612da7610100830184612cb2565b9a9950505050505050505050565b612dbe816129df565b82525050565b6000602082019050612dd96000830184612db5565b92915050565b6000602082019050612df46000830184612cb2565b92915050565b600080fd5b600080fd5b600080fd5b60008083601f840112612e1f57612e1e612dfa565b5b8235905067ffffffffffffffff811115612e3c57612e3b612dff565b5b602083019150836001820283011115612e5857612e57612e04565b5b9250929050565b60008060008060008060008060c0898b031215612e7f57612e7e612810565b5b600089013567ffffffffffffffff811115612e9d57612e9c612815565b5b612ea98b828c01612e09565b98509850506020612ebc8b828c0161283b565b9650506040612ecd8b828c0161283b565b9550506060612ede8b828c0161283b565b9450506080612eef8b828c0161283b565b93505060a089013567ffffffffffffffff811115612f1057612f0f612815565b5b612f1c8b828c01612e09565b92509250509295985092959890939650565b60008060408385031215612f4557612f44612810565b5b6000612f538582860161283b565b9250506020612f6485828601612c4a565b9150509250929050565b600060208284031215612f8457612f83612810565b5b6000612f9284828501612c4a565b91505092915050565b60008115159050919050565b612fb081612f9b565b82525050565b604082016000820151612fcc600085018261287d565b506020820151612fdf6020850182612fa7565b50505050565b6000604082019050612ffa6000830184612fb6565b92915050565b61300981612f9b565b82525050565b60006040820190506130246000830185612cb2565b6130316020830184613000565b9392505050565b600060208201905061304d6000830184612d0b565b92915050565b600081519050919050565b600082825260208201905092915050565b6000819050602082019050919050565b600061016083016000830151613098600086018261287d565b50602083015184820360208601526130b082826128e3565b91505060408301516130c5604086018261287d565b5060608301516130d8606086018261287d565b5060808301516130eb608086018261287d565b5060a08301516130fe60a086018261287d565b5060c083015184820360c086015261311682826128e3565b91505060e083015161312b60e0860182612984565b5061010083015161314061010086018261287d565b5061012083015161315561012086018261287d565b5061014083015184820361014086015261316f8282612a25565b9150508091505092915050565b6000613188838361307f565b905092915050565b6000602082019050919050565b60006131a882613053565b6131b2818561305e565b9350836020820285016131c48561306f565b8060005b8581101561320057848403895281516131e1858261317c565b94506131ec83613190565b925060208a019950506001810190506131c8565b50829750879550505050505092915050565b6000602082019050818103600083015261322c818461319d565b905092915050565b7f4e487b7100000000000000000000000000000000000000000000000000000000600052603260045260246000fd5b7f4e487b7100000000000000000000000000000000000000000000000000000000600052601160045260246000fd5b600061329d8261281a565b91506132a88361281a565b92508282026132b68161281a565b915082820484148315176132cd576132cc613263565b5b5092915050565b7f4e487b7100000000000000000000000000000000000000000000000000000000600052601260045260246000fd5b600061330e8261281a565b91506133198361281a565b925082613329576133286132d4565b5b828204905092915050565b600061333f8261281a565b915061334a8361281a565b925082820390508181111561336257613361613263565b5b92915050565b600060408201905061337d6000830185612cb2565b818103602083015261338f8184612bb3565b90509392505050565b7f4e487b7100000000000000000000000000000000000000000000000000000000600052602260045260246000fd5b600060028204905060018216806133df57607f821691505b6020821081036133f2576133f1613398565b5b50919050565b600060608201905061340d6000830186612cb2565b61341a6020830185612db5565b6134276040830184612cb2565b949350505050565b60006040820190506134446000830185612cb2565b6134516020830184612db5565b9392505050565b600082905092915050565b7f4e487b7100000000000000000000000000000000000000000000000000000000600052604160045260246000fd5b60008190508160005260206000209050919050565b60006020601f8301049050919050565b600082821b905092915050565b6000600883026134f47fffffffffffffffffffffffffffffffffffffffffffffffffffffffffffffffff826134b7565b6134fe86836134b7565b95508019841693508086168417925050509392505050565b6000819050919050565b600061353b6135366135318461281a565b613516565b61281a565b9050919050565b6000819050919050565b61355583613520565b61356961356182613542565b8484546134c4565b825550505050565b600090565b61357e613571565b61358981848461354c565b505050565b5b818110156135ad576135a2600082613576565b60018101905061358f565b5050565b601f8211156135f2576135c381613492565b6135cc846134a7565b810160208510156135db578190505b6135ef6135e7856134a7565b83018261358e565b50505b505050565b600082821c905092915050565b6000613615600019846008026135f7565b1980831691505092915050565b600061362e8383613604565b9150826002028217905092915050565b6136488383613458565b67ffffffffffffffff81111561366157613660613463565b5b61366b82546133c7565b6136768282856135b1565b6000601f8311600181146136a55760008415613693578287013590505b61369d8582613622565b865550613705565b601f1984166136b386613492565b60005b828110156136db578489013582556001820191506020850194506020810190506136b6565b868310156136f857848901356136f4601f891682613604565b8355505b6001600288020188555050505b50505050505050565b82818337600083830152505050565b60006137298385612cc1565b935061373683858461370e565b61373f836128d2565b840190509392505050565b600060a08201905061375f6000830189612cb2565b818103602083015261377281878961371d565b90506137816040830186612cb2565b61378e6060830185612cb2565b61379b6080830184612cb2565b979650505050505050565b60006137b18261281a565b91506137bc8361281a565b92508282019050808211156137d4576137d3613263565b5b9291505056fea264697066735822122032aa75ade55bf2f57310a7ad2de8521efd7612d13fe0012fae1eac94d37d7b3364736f6c634300081c0033",
  "linkReferences": {},
  "deployedLinkReferences": {}
}